:020000040800F2
:1000000000C0002011560008D5540008D75400083D
:10001000D9540008DB540008DD540008000000003B
:10002000000000000000000000000000DF54000895
:10003000E154000800000000E3540008E554000803
:1000400059560008595600085956000859560008D4
:1000500059560008595600085956000859560008C4
:10006000595600085956000859560008593B0008CF
:1000700059560008595600085956000859560008A4
:100080005956000859560008595600085956000894
:10009000595600085956000859560008F1540008EE
:1000A0005956000859560008595600085956000874
:1000B00059560008015600085954000859560008BE
:1000C0005956000859560008595600085956000854
:1000D0005956000859560008F155000859560008AD
:1000E0006555000859560008595600085956000829
:1000F0005956000859560008595600085956000824
:100100005956000859560008595600085956000813
:100110005956000859560008595600085956000803
:1001200059560008595600085956000859560008F3
:1001300000000000000000000000000000000000BF
:1001400000000000000000000000000000000000AF
:10015000000000000000000000000000000000009F
:10016000000000000000000000000000000000008F
:10017000000000000000000000000000000000007F
:10018000000000000000000000000000000000006F
:10019000000000000000000000000000000000005F
:1001A000000000000000000000000000000000004F
:1001B000000000000000000000000000000000003F
:1001C000000000000000000000000000000000002F
:1001D000000000000000000000000000000000001F
:0401E0005FF8E0F1F3
:1001E80010B5054C237833B9044B13B10448AFF369
:1001F80000800123237010BD380300200000000098
:100208002469000808B5034B1BB103490348AFF341
:10021800008008BD000000003C030020246900089D
:10022800034613F8012B002AFBD1181A013870472E
:1002380081F0004102E000BF83F0004330B54FEA8F
:1002480041044FEA430594EA050F08BF90EA020FFC
:100258001FBF54EA000C55EA020C7FEA645C7FEA8F
:10026800655C00F0E2804FEA5454D4EB5555B8BFB2
:100278006D420CDD2C4480EA020281EA030382EA23
:10028800000083EA010180EA020281EA0303362DB5
:1002980088BF30BD11F0004F4FEA01314FF4801C88
:1002A8004CEA113102D0404261EB410113F0004F9A
:1002B8004FEA03334CEA133302D0524263EB430351
:1002C80094EA050F00F0A780A4F10104D5F1200EEF
:1002D8000DDB02FA0EFC22FA05F2801841F100014A
:1002E80003FA0EF2801843FA05F359410EE0A5F11E
:1002F80020050EF1200E012A03FA0EFC28BF4CF04F
:10030800020C43FA05F3C01851EBE37101F0004504
:1003180007D54FF0000EDCF1000C7EEB00006EEB11
:100328000101B1F5801F1BD3B1F5001F0CD349089B
:100338005FEA30004FEA3C0C04F101044FEA4452F2
:1003480012F5800F80F09A80BCF1004F08BF5FEA79
:10035800500C50F1000041EB045141EA050130BD59
:100368005FEA4C0C404141EB010111F4801FA4F1FC
:100378000104E9D191F0000F04BF01460020B1FA51
:1003880081F308BF2033A3F10B03B3F120020CDA89
:100398000C3208DD02F1140CC2F10C0201FA0CF067
:1003A80021FA02F10CE002F11402D8BFC2F1200CCC
:1003B80001FA02F120FA0CFCDCBF41EA0C01904082
:1003C800E41AA2BF01EB0451294330BD6FEA0404CB
:1003D8001F3C1CDA0C340EDC04F11404C4F12002B6
:1003E80020FA04F001FA02F340EA030021FA04F3C8
:1003F80045EA030130BDC4F10C04C4F1200220FA1F
:1004080002F001FA04F340EA0300294630BD21FA5C
:1004180004F0294630BD94F0000F83F4801306BF22
:1004280081F480110134013D4EE77FEA645C18BF16
:100438007FEA655C29D094EA050F08BF90EA020FAD
:1004480005D054EA000C04BF1946104630BD91EAA5
:10045800030F1EBF0021002030BD5FEA545C05D1A8
:100468004000494128BF41F0004130BD14F58004E7
:100478003CBF01F5801130BD01F0004545F0FE415B
:1004880041F470014FF0000030BD7FEA645C1ABF90
:10049800194610467FEA655C1CBF0B46024650EAC7
:1004A800013406BF52EA033591EA030F41F40021F3
:1004B80030BD00BF90F0000F04BF0021704730B579
:1004C8004FF4806404F132044FF000054FF000014E
:1004D80050E700BF90F0000F04BF0021704730B50F
:1004E8004FF4806404F1320410F0004548BF4042E4
:1004F8004FF000013EE700BF42004FEAE2014FEA39
:1005080031014FEA02701FBF12F07F4393F07F4F13
:1005180081F06051704732F07F4208BF704793F016
:100528007F4F04BF41F40021704730B54FF4607429
:1005380001F0004521F000411CE700BF50EA01022C
:1005480008BF704730B54FF000050AE050EA0102D5
:1005580008BF704730B511F0004502D5404261EB45
:1005680041014FF4806404F132045FEA915C3FF486
:10057800D8AE4FF003025FEADC0C18BF03325FEA23
:10058800DC0C18BF033202EBDC02C2F1200300FAD4
:1005980003FC20FA02F001FA03FE40EA0E0021FAF9
:1005A80002F11444BDE600BF70B54FF0FF0C4CF4E7
:1005B800E06C1CEA11541DBF1CEA135594EA0C0F99
:1005C80095EA0C0F00F0DEF82C4481EA030621EAD4
:1005D8004C5123EA4C5350EA013518BF52EA03350F
:1005E80041F4801143F4801338D0A0FB02CE4FF0C1
:1005F8000005E1FB02E506F00042E0FB03E54FF0F1
:100608000006E1FB03569CF0000F18BF4EF0010EE8
:10061800A4F1FF04B6F5007F64F5407404D25FEAE4
:100628004E0E6D4146EB060642EAC62141EA555197
:100638004FEAC52040EA5E504FEACE2EB4F1FD0CD9
:1006480088BFBCF5E06F1ED8BEF1004F08BF5FEA57
:10065800500E50F1000041EB045170BD06F0004609
:1006680046EA010140EA020081EA0301B4EB5C04B6
:10067800C2BFD4EB0C0541EA045170BD41F48011AE
:100688004FF0000E013C00F3AB8014F1360FDEBFD3
:10069800002001F0004170BDC4F10004203C35DAAF
:1006A8000C341BDC04F11404C4F1200500FA05F332
:1006B80020FA04F001FA05F240EA020001F00042D3
:1006C80021F0004110EBD37021FA04F642EB060149
:1006D8005EEA430E08BF20EAD37070BDC4F10C0473
:1006E800C4F1200500FA04F320FA05F001FA04F237
:1006F80040EA020001F0004110EBD37041F1000123
:100708005EEA430E08BF20EAD37070BDC4F120052D
:1007180000FA05F24EEA020E20FA04F301FA05F295
:1007280043EA020321FA04F001F0004121FA04F23D
:1007380020EA020000EBD3705EEA430E08BF20EA0D
:10074800D37070BD94F0000F0FD101F00046400047
:1007580041EB010111F4801F08BF013CF7D041EAC9
:10076800060195F0000F18BF704703F000465200CD
:1007780043EB030313F4801F08BF013DF7D043EA9E
:100788000603704794EA0C0F0CEA135518BF95EA54
:100798000C0F0CD050EA410618BF52EA4306D1D1DB
:1007A80081EA030101F000414FF0000070BD50EAFA
:1007B800410606BF1046194652EA430619D094EA84
:1007C8000C0F02D150EA013613D195EA0C0F05D16E
:1007D80052EA03361CBF104619460AD181EA0301C2
:1007E80001F0004141F0FE4141F470014FF000007A
:1007F80070BD41F0FE4141F4780170BD70B54FF015
:10080800FF0C4CF4E06C1CEA11541DBF1CEA135594
:1008180094EA0C0F95EA0C0F00F0A7F8A4EB050476
:1008280081EA030E52EA03354FEA013100F088806D
:100838004FEA03334FF0805545EA131343EA126336
:100848004FEA022245EA111545EA10654FEA0026EB
:100858000EF000419D4208BF964244F1FD0404F5A4
:10086800407402D25B084FEA3202B61A65EB030500
:100878005B084FEA32024FF480104FF4002CB6EBBD
:10088800020E75EB030E22BFB61A754640EA0C003D
:100898005B084FEA3202B6EB020E75EB030E22BF7D
:1008A800B61A754640EA5C005B084FEA3202B6EBBE
:1008B800020E75EB030E22BFB61A754640EA9C007D
:1008C8005B084FEA3202B6EB020E75EB030E22BF4D
:1008D800B61A754640EADC0055EA060E18D04FEA0B
:1008E800051545EA16754FEA06164FEAC30343EAAB
:1008F80052734FEAC2025FEA1C1CC0D111F4801F78
:100908000BD141EA00014FF000004FF0004CB6E770
:1009180011F4801F04BF01430020B4F1FD0C88BF0F
:10092800BCF5E06F3FF6AFAEB5EB030C04BFB6EB1A
:10093800020C5FEA500C50F1000041EB045170BD0D
:100948000EF0004E4EEA113114EB5C04C2BFD4EB3A
:100958000C0541EA045170BD41F480114FF0000EBE
:10096800013C90E645EA060E8DE60CEA135594EA3A
:100978000C0F08BF95EA0C0F3FF43BAF94EA0C0F3D
:100988000AD150EA01347FF434AF95EA0C0F7FF4B2
:1009980025AF104619462CE795EA0C0F06D152EA06
:1009A80003353FF4FDAE1046194622E750EA4106EA
:1009B80018BF52EA43067FF4C5AE50EA41047FF4FB
:1009C8000DAF52EA43057FF4EBAE12E74FF0FF3C60
:1009D80006E000BF4FF0010C02E000BF4FF0010C31
:1009E8004DF804CD4FEA410C7FEA6C5C4FEA430CAA
:1009F80018BF7FEA6C5C1BD001B050EA410C0CBFF9
:100A080052EA430C91EA030F02BF90EA020F00205A
:100A1800704710F1000F91EA030F58BF994208BFC1
:100A280090422CBFD8176FEAE37040F0010070477E
:100A38004FEA410C7FEA6C5C02D150EA013C07D1D5
:100A48004FEA430C7FEA6C5CD6D152EA033CD3D020
:100A58005DF8040B704700BF8446104662468C461A
:100A68001946634600E000BF01B5FFF7B7FF00284D
:100A780048BF10F1000F01BD4DF808EDFFF7F4FF76
:100A88000CBF012000205DF808FB00BF4DF808ED01
:100A9800FFF7EAFF34BF012000205DF808FB00BF24
:100AA8004DF808EDFFF7E0FF94BF012000205DF846
:100AB80008FB00BF4DF808EDFFF7CEFF94BF0120FB
:100AC80000205DF808FB00BF4DF808EDFFF7C4FFF4
:100AD80034BF012000205DF808FB00BF4FEA410247
:100AE80012F5001215D211D56FF47873B3EB625278
:100AF80012D94FEAC12343F0004343EA505311F09F
:100B0800004F23FA02F018BF404270474FF0000030
:100B1800704750EA013005D111F0004008BF6FF06E
:100B2800004070474FF00000704700BF4FEA410295
:100B3800B2F1E04324BFB3F5001CDCF1FE5C0DD933
:100B480001F0004C4FEAC0024CEA5070B2F1004F7D
:100B580040EB830008BF20F00100704711F0804F80
:100B680021D113F13872BCBF01F00040704741F445
:100B780080114FEA5252C2F11802C2F1200C10FA49
:100B88000CF320FA02F018BF40F001004FEAC1232D
:100B98004FEAD32303FA0CFC40EA0C0023FA02F3D1
:100BA8004FEA4303CCE77FEA625307D150EA0133A7
:100BB8001EBF4FF0FE4040F44000704701F0004077
:100BC80040F0FE4040F40000704700BF80F0004055
:100BD80002E000BF81F0004142001FBF5FEA41030D
:100BE80092EA030F7FEA226C7FEA236C6AD04FEA0D
:100BF8001262D2EB1363C1BFD21841404840414052
:100C0800B8BF5B42192B88BF704710F0004F40F403
:100C1800000020F07F4018BF404211F0004F41F41F
:100C2800000121F07F4118BF494292EA030F3FD0EB
:100C3800A2F1010241FA03FC10EB0C00C3F12003FE
:100C480001FA03F100F0004302D5494260EB40008D
:100C5800B0F5000F13D3B0F1807F06D340084FEAF8
:100C6800310102F10102FE2A51D2B1F1004F40EBED
:100C7800C25008BF20F0010040EA03007047490055
:100C880040EB000010F4000FA2F10102EDD1B0FA20
:100C980080FCACF1080CB2EB0C0200FA0CF0AABF15
:100CA80000EBC25052421843BCBFD04018437047B3
:100CB80092F0000F81F4000106BF80F400000132B9
:100CC800013BB5E74FEA41037FEA226C18BF7FEA90
:100CD800236C21D092EA030F04D092F0000F08BFD2
:100CE8000846704790EA010F1CBF0020704712F0B9
:100CF8007F4F04D1400028BF40F00040704712F1F8
:100D080000723CBF00F50000704700F0004343F05C
:100D1800FE4040F4000070477FEA226216BF084692
:100D28007FEA23630146420206BF5FEA412390EA55
:100D3800010F40F4800070474FF0000304E000BF4B
:100D480010F0004348BF40425FEA000C08BF7047FC
:100D580043F0964301464FF000001CE050EA0102C0
:100D680008BF70474FF000030AE000BF50EA0102D5
:100D780008BF704711F0004302D5404261EB4101C2
:100D88005FEA010C02BF84460146002043F0B643E7
:100D980008BFA3F18053A3F50003BCFA8CF2083A0C
:100DA800A3EBC25310DB01FA02FC634400FA02FC15
:100DB800C2F12002BCF1004F20FA02F243EB02001C
:100DC80008BF20F00100704702F1200201FA02FC7E
:100DD800C2F1200250EA4C0021FA02F243EB020071
:100DE80008BF20EADC7070474FF0FF0C1CEAD052B5
:100DF8001EBF1CEAD15392EA0C0F93EA0C0F6FD076
:100E08001A4480EA010C400218BF5FEA41211ED053
:100E18004FF0006343EA501043EA5111A0FB01313F
:100E28000CF00040B1F5000F3EBF490041EAD37114
:100E38005B0040EA010062F17F02FD2A1DD8B3F190
:100E4800004F40EBC25008BF20F00100704790F0FF
:100E5800000F0CF0004C08BF49024CEA502040EA51
:100E680051207F3AC2BFD2F1FF0340EAC250704717
:100E780040F400004FF00003013A5DDC12F1190F55
:100E8800DCBF00F000407047C2F10002410021FAC7
:100E980002F1C2F1200200FA02FC5FEA310040F1DF
:100EA800000053EA4C0308BF20EADC70704792F058
:100EB800000F00F0004C02BF400010F4000F013A90
:100EC800F9D040EA0C0093F0000F01F0004C02BF8B
:100ED800490011F4000F013BF9D041EA0C018FE7FA
:100EE8000CEAD15392EA0C0F18BF93EA0C0F0AD000
:100EF80030F0004C18BF31F0004CD8D180EA010026
:100F080000F00040704790F0000F17BF90F0004FBE
:100F1800084691F0000F91F0004F14D092EA0C0FA0
:100F280001D142020FD193EA0C0F03D14B0218BF33
:100F3800084608D180EA010000F0004040F0FE4079
:100F480040F40000704740F0FE4040F44000704715
:100F58004FF0FF0C1CEAD0521EBF1CEAD15392EA94
:100F68000C0F93EA0C0F69D0A2EB030280EA010C84
:100F780049024FEA402037D04FF0805343EA11111D
:100F880043EA10130CF000408B4238BF5B0042F17B
:100F98007D024FF4000C8B4224BF5B1A40EA0C0020
:100FA800B3EB510F24BFA3EB510340EA5C00B3EB52
:100FB800910F24BFA3EB910340EA9C00B3EBD10F40
:100FC80024BFA3EBD10340EADC001B0118BF5FEA92
:100FD8001C1CE0D1FD2A3FF650AF8B4240EBC250BB
:100FE80008BF20F0010070470CF0004C4CEA50207C
:100FF8007F32C2BFD2F1FF0340EAC250704740F4CB
:1010080000004FF00003013A37E792F0000F00F0BC
:10101800004C02BF400010F4000F013AF9D040EA3A
:101028000C0093F0000F01F0004C02BF490011F4CE
:10103800000F013BF9D041EA0C0195E70CEAD153C6
:1010480092EA0C0F08D142027FF47DAF93EA0C0FAD
:101058007FF470AF084676E793EA0C0F04D14B0291
:101068003FF44CAF08466EE730F0004C18BF31F043
:10107800004CCAD130F000427FF45CAF31F000433D
:101088007FF43CAF5FE700BF4FF0FF3C06E000BFD6
:101098004FF0010C02E000BF4FF0010C4DF804CDF9
:1010A8004FEA40024FEA41037FEA226C18BF7FEA09
:1010B800236C11D001B052EA530C18BF90EA010F0B
:1010C80058BFB2EB030088BFC81738BF6FEAE1709A
:1010D80018BF40F0010070477FEA226C02D15FEA36
:1010E800402C05D17FEA236CE4D15FEA412CE1D0A2
:1010F8005DF8040B704700BF844608466146FFE769
:101108000FB5FFF7C9FF002848BF10F1000F0FBD4A
:101118004DF808EDFFF7F4FF0CBF012000205DF843
:1011280008FB00BF4DF808EDFFF7EAFF34BF0120C8
:1011380000205DF808FB00BF4DF808EDFFF7E0FF61
:1011480094BF012000205DF808FB00BF4DF808EDB2
:10115800FFF7D2FF94BF012000205DF808FB00BF15
:101168004DF808EDFFF7C8FF34BF012000205DF8F7
:1011780008FB00BF4FEA4002B2F1FE4F0FD34FF019
:101188009E03B3EB12620DD94FEA002343F00043EC
:1011980010F0004F23FA02F018BF404270474FF09A
:1011A8000000704712F1610F01D1420205D110F021
:1011B800004008BF6FF0004070474FF000007047D4
:1011C80082B0084B1B68084AA2FB03235B0A00FB9A
:1011D80003F0019000BF019B5A1E0192002BF9D128
:1011E80002B0704700000020D34D621070B582B085
:1011F8000446036813F0010F2CD0AB4B5B6803F077
:101208000C03042B1DD0A84B5B6803F00C03082BC0
:1012180012D06368B3F5803F41D0002B55D103F15C
:10122800804303F504331A6822F480321A601A687E
:1012380022F480221A6037E09B4B5B6813F4803FEE
:10124800E7D0994B1B6813F4003F03D06368002B69
:1012580000F0AE81236813F0020F76D0924B5B68E2
:1012680013F00C0F5FD0904B5B6803F00C03082B56
:1012780054D02369002B00F08A808C4B01221A601D
:1012880001F08AF90546884B1B6813F0020F75D1E7
:1012980001F082F9401B0228F5D903208BE1824A2C
:1012A800136843F480331360636843B301F074F93F
:1012B80005467D4B1B6813F4003FCBD101F06CF958
:1012C800401B6428F5D9032075E1B3F5A02F09D098
:1012D800754B1A6822F480321A601A6822F4802248
:1012E8001A60E1E703F18043A3F53C331A6842F43E
:1012F80080221A601A6842F480321A60D4E701F03A
:101308004BF90546684B1B6813F4003FA2D001F067
:1013180043F9401B6428F5D903204CE1624B5B6814
:1013280013F4803FA5D1604B1B6813F0020F04D063
:101338002369012B01D001203DE15B4A136823F0AA
:10134800F803616943EAC1031360236813F0080FC7
:1013580032D0A369002B5BD0554B01221A6001F0F3
:101368001BF90546504B5B6A13F0020F21D101F0BF
:1013780013F9401B0228F5D903201CE14A4A1368D7
:1013880023F0F803616943EAC1031360DDE7474BC3
:1013980000221A6001F000F90546434B1B6813F060
:1013A800020FD2D001F0F8F8401B0228F5D903202B
:1013B80001E10120FFF704FF236813F0040F00F098
:1013C8009780394BDB6913F0805F33D1364BDA698C
:1013D80042F08052DA61DB6903F080530193019B8C
:1013E8000125344B1B6813F4807F25D0E368012B5B
:1013F80036D0002B4CD103F1804303F504331A6A2D
:1014080022F001021A621A6A22F004021A622CE01F
:10141800274B00221A6001F0BFF80546224B5B6A91
:1014280013F0020FC8D001F0B7F8401B0228F5D915
:101438000320C0E00025D4E71E4A136843F48073F4
:10144800136001F0A9F806461A4B1B6813F4807F55
:10145800CCD101F0A1F8801B6428F5D90320AAE0BB
:10146800114A136A43F001031362E36873B301F08E
:1014780093F806460C4B1B6A13F0020F37D101F0A4
:101488008BF8801B41F288339842F3D9032092E00D
:10149800052B11D0044B1A6A22F001021A621A6A4B
:1014A80022F004021A62E0E7001002400000424203
:1014B8008004424200700040414B1A6A42F0040224
:1014C8001A621A6A42F001021A62CEE701F064F861
:1014D80006463B4B1B6A13F0020F08D001F05CF87C
:1014E800801B41F288339842F3D9032063E0E5B9C1
:1014F800E369002B5ED0324A526802F00C02082AD7
:101508005BD0022B17D02F4B00221A6001F044F851
:1015180004462B4B1B6813F0007F47D001F03CF8C2
:10152800001B0228F5D9032045E0254AD36923F09A
:101538008053D361DCE7234B00221A6001F02CF8BA
:1015480005461F4B1B6813F0007F06D001F024F8F6
:10155800401B0228F5D903202DE0236AB3F5803F0C
:101568001AD017494B6823F47413226A606A02433D
:1015780013434B60134B01221A6001F00DF8044627
:101588000F4B1B6813F0007F0ED101F005F8001B0C
:101598000228F5D903200EE0094A536823F40033E2
:1015A800A1680B435360DCE7002004E0002002E060
:1015B800012000E0002002B070BD0120FBE700BF61
:1015C800001002406000424210B487B0164C94E804
:1015D8000F000DF1180C0CE90F00238AADF8043048
:1015E800124B5B6803F00C02082A1AD1C3F383423A
:1015F800624412F8100C13F4803F05D10C4B03FB26
:1016080000F007B010BC7047084B5B68C3F3404359
:10161800634413F8142C074BB3FBF2F300FB03F0FD
:10162800EFE70448EDE700BF3C69000800100240FE
:1016380000093D0000127A00594B1B6803F00703AC
:101648008B420CD2564A136823F007030B431360EE
:10165800136803F007038B4201D00120704770B56F
:10166800036813F0020F06D04E4A536823F0F003C4
:101678008468234353600C460546036813F0010F42
:1016880052D04368012B23D0022B28D0454A126838
:1016980012F0020F00F0828042494A6822F00302E9
:1016A80013434B6000F078FF06466B68012B1DD092
:1016B800022B2AD03B4B5B6813F00C0F34D000F0A0
:1016C8006BFF801B41F288339842F3D9032064E012
:1016D800344A126812F4003FDED101205DE0314A3D
:1016E800126812F0007FD7D1012056E02D4B5B68BD
:1016F80003F00C03042B17D000F04EFF801B41F2BF
:1017080088339842F2D9032047E0264B5B6803F000
:101718000C03082B08D000F03FFF801B41F28833F0
:101728009842F2D9032038E01D4B1B6803F00703E9
:10173800A3420CD91A4A136823F007032343136002
:10174800136803F00703A34201D0012025E02B68AA
:1017580013F0040F06D0134A536823F4E063E968D2
:101768000B4353602B6813F0080F07D00D4A5368DA
:1017780023F46053296943EAC1035360FFF724FF48
:10178800084B5B68C3F30313074AD35CD840074B85
:101798001860002000F0D0FE002070BD0120FCE79A
:1017A80000200240001002406C6900080000002080
:1017B800014B1868704700BF0000002008B5FFF70C
:1017C800F7FF044B5B68C3F30223034AD35CD8409A
:1017D80008BD00BF001002407C69000808B5FFF78B
:1017E800E7FF044B5B68C3F3C223034AD35CD840CA
:1017F80008BD00BF001002407C69000830B4036ACD
:1018080023F001030362056A4268846924F07304C3
:101818000B681C4325F002058B682B43104DA8422A
:1018280003D005F50065A84205D123F00803CD686B
:101838002B4323F004030A4DA84203D005F50065A5
:10184800A84205D122F440724D6915438A692A439A
:10185800426084614A684263036230BC704700BFDB
:10186800002C014030B4036A23F480730362036AD6
:101878004268C46924F073040D682C4323F4007390
:101888008D6843EA0523124DA84203D005F500658B
:10189800A84206D123F40063CD6843EA052323F464
:1018A80080630B4DA84203D005F50065A84207D117
:1018B80022F440524D6942EA05128D6942EA051246
:1018C8004260C4614A68C263036230BC704700BFAB
:1018D800002C014030B4036A23F480530362036A86
:1018E8004468C26922F4E6420D6842EA052223F4FC
:1018F80000538D6843EA0533094DA84203D005F526
:101908000065A84204D124F480444D6944EA851452
:101918004460C2614A680264036230BC704700BF19
:10192800002C014010B4036A046A24F00104046224
:10193800846924F0F00444EA021223F00A030B43FA
:101948008261036210BC704710B4036A23F010036D
:1019580003628469036A24F4704444EA023223F07F
:10196800A00343EA01138261036210BC70478368D5
:1019780023F0700341F0070119438160704710B4E8
:10198800846824F47F4442EA03230B43234383609F
:1019980010BC704710B50468A26822F070024B684A
:1019A800134323F007030A681343A3604B68502BC3
:1019B8001ED00AD9602B21D0702B05D10B698A68FB
:1019C800C9680068FFF7DBFF10BD402BFCD1036836
:1019D8001C6A1A6A22F001021A620268936923F0EB
:1019E800F003096943EA0113936103681C62EBE79A
:1019F8000A6989680068FFF795FFE5E70A69896859
:101A08000068FFF7A1FFDFE77047022380F83D3049
:101A18000268136843F001031360012380F83D3026
:101A2800002070470268D36843F00103D36002685E
:101A3800136843F00103136000207047704790F863
:101A48003C30012B7DD010B50446012380F83C3092
:101A5800022380F83D300268936823F47F4323F023
:101A6800770393600B68402B57D010D9702B3ED06A
:101A78001FD8502B47D0602B32D1CA6849680068FC
:101A8800FFF762FF60212068FFF771FF28E0102B45
:101A98004DD008D9202B4FD0302B21D130210068D0
:101AA800FFF765FF1CE0DBB900210068FFF75FFF67
:101AB80016E0B3F5805F0ED0B3F5005F10D1CB68A8
:101AC8004A6889680068FFF75AFF2268936843F4F8
:101AD8008043936004E00268936823F007039360EF
:101AE800012384F83D30002084F83C0010BDCB6809
:101AF8004A6889680068FFF742FF2268936843F0E4
:101B080077039360ECE7CA6849680068FFF70AFF43
:101B180050212068FFF72BFFE2E7CA684968006890
:101B2800FFF700FF40212068FFF721FFD8E71021C9
:101B38000068FFF71CFFD3E720210068FFF717FFB5
:101B4800CEE70220704738B590F83C30012B18D00A
:101B58000446012580F83C50022380F83D30FFF709
:101B680019FF2268D36823F04003D3602268D36842
:101B780023F48043D36084F83D50002084F83C006F
:101B880038BD0220FCE7704770477047704710B5B2
:101B9800044603681A6912F0020F11D0DA6812F0CD
:101BA800020F0DD06FF002021A6101230377036858
:101BB8009B6913F0030F70D0FFF7E6FF002323772C
:101BC80023681A6912F0040F12D0DA6812F0040FB1
:101BD8000ED06FF004021A610223237723689B69F1
:101BE80013F4407F5FD02046FFF7CEFF0023237712
:101BF80023681A6912F0080F12D0DA6812F0080F79
:101C08000ED06FF008021A61042323772368DB697A
:101C180013F0030F4ED02046FFF7B6FF00232377BB
:101C280023681A6912F0100F12D0DA6812F0100F38
:101C38000ED06FF010021A61082323772368DB693E
:101C480013F4407F3DD02046FFF79EFF0023237703
:101C580023681A6912F0010F03D0DA6812F0010F35
:101C680036D123681A6912F0800F03D0DA6812F0AF
:101C7800800F34D123681A6912F0400F03D0DA6854
:101C880012F0400F32D123681A6912F0200F03D0E6
:101C9800DA6812F0200F30D110BDFFF774FF20462C
:101CA800FFF773FF8AE72046FFF76DFF2046FFF72F
:101CB8006CFF9BE72046FFF766FF2046FFF765FFAE
:101CC800ACE72046FFF75FFF2046FFF75EFFBDE762
:101CD8006FF001021A61204601F0EAFEC1E76FF0D9
:101CE80080021A61204600F0D3F9C3E76FF0400282
:101CF8001A612046FFF74AFFC5E76FF020021A6114
:101D0800204600F0C4F9C7E70368244A904212D07D
:101D180002F5006290420ED0B0F1804F0BD0A2F5D0
:101D28009832904207D002F58062904203D002F5C3
:101D38008062904203D123F070034A681343174A24
:101D4800904212D002F5006290420ED0B0F1804F5E
:101D58000BD0A2F59832904207D002F580629042EB
:101D680003D002F58062904203D123F44073CA681D
:101D7800134323F080034A69134303608B68C362EB
:101D88000B688362054B984203D003F500639842C1
:101D980001D10B690363012343617047002C0140A3
:101DA800A8B110B5044690F83D305BB1022384F821
:101DB8003D30211D2068FFF7A7FF012384F83D303F
:101DC800002010BD80F83C30FFF71EFEEEE7012032
:101DD8007047A8B110B5044690F83D305BB10223B6
:101DE80084F83D30211D2068FFF78EFF012384F819
:101DF8003D30002010BD80F83C30FFF71FFEEEE7B5
:101E08000120704730B4036A23F010030362036AA9
:101E18004468826922F4E6420D6842EA052223F00A
:101E280020038D6843EA0513114DA84203D005F538
:101E38000065A84206D123F08003CD6843EA051364
:101E480023F040030A4DA84203D005F50065A842D7
:101E580007D124F440644D6944EA85048D6944EA55
:101E68008504446082614A688263036230BC7047BB
:101E7800002C014038B590F83C30012B66D00D4657
:101E88000446012380F83C30022380F83D300C2AB8
:101E98001AD8DFE802F00719191920191919341985
:101EA800191947000068FFF7A9FC2268936943F0F5
:101EB800080393612268936923F0040393612268FD
:101EC800936929690B439361012384F83D3000200D
:101ED80084F83C0038BD0068FFF794FF22689369D6
:101EE80043F4006393612268936923F480639361E8
:101EF80022689369296943EA01239361E4E700684A
:101F0800FFF7B0FC2268D36943F00803D361226865
:101F1800D36923F00403D3612268D36929690B4389
:101F2800D361D1E70068FFF7D5FC2268D36943F491
:101F38000063D3612268D36923F48063D361226884
:101F4800D369296943EA0123D361BDE70220C1E7C8
:101F580010B4012303FA01F4036A23EA04030362B9
:101F6800036A8A401343036210BC704710B50446E5
:101F780001220068FFF7ECFF2368094A934203D067
:101F880002F50062934203D15A6C42F400425A644B
:101F98002268136843F001031360002010BD00BFDE
:101FA800002C014010B4042303FA01F4036A23EA65
:101FB80004030362036A8A401343036210BC704738
:101FC80010B5044604220068FFF7ECFF2268536C42
:101FD80043F4004353642268136843F00103136019
:101FE800002010BD90F83C30012B25D0012380F84B
:101FF8003C30CB6823F440738A68134323F480632E
:102008004A68134323F400630A68134323F4805394
:102018000A69134323F400534A69134323F48043A2
:102028008A69134323F4004313430268536400236B
:1020380080F83C30184670470220704790F83C30D2
:10204800012B22D030B4012280F83C20022380F8F2
:102058003D300468636823F0700363600468636854
:102068000D682B4363600468A36823F08003A360B2
:102078000468A36849680B43A36080F83D200023E7
:1020880080F83C30184630BC7047022070477047D3
:1020980070470000034690F82420012A20D001222E
:1020A80080F824200268906810F0010F07D10D48CD
:1020B800806810F0010F02D10B48824208D09A6A5A
:1020C80042F020029A620120002283F824207047FF
:1020D800506820F470200968014351600020F3E73C
:1020E800022070470028014000240140074AD368B5
:1020F80023F4E0631B041B0C000200F4E0601843A7
:1021080040F0BF6040F40030D060704700ED00E060
:1021180030B4174BDB68C3F30223C3F10704042C64
:1021280028BF04241D1D062D18D9033B4FF0FF3589
:1021380005FA04F421EA0401994005FA03F322EAB6
:102148000303194300280BDB0901C9B200F1604001
:1021580000F5614080F8001330BC70470023E5E7C4
:1021680000F00F000901C9B2024B1954F4E700BF8F
:1021780000ED00E014ED00E000F01F02400901232B
:102188009340024A42F82030704700BF00E100E067
:10219800BFF34F8F0549CA6802F4E062044B13434A
:1021A800CB60BFF34F8F00BFFDE700BF00ED00E03D
:1021B8000400FA050138B0F1807F0AD2064B586056
:1021C800064AF02182F823100020986007221A603E
:1021D80070470120704700BF10E000E000ED00E00C
:1021E800042805D0054A136823F0040313607047D8
:1021F800024A136843F004031360704710E000E0DC
:10220800704708B5FFF7FCFF08BD0000F0B482B0C6
:1022180000263546ABE0002C63D0012C00D1CE68F7
:10222800FF2B72D88446FF2B72D8AC00DCF8002054
:102238000F27A74022EA070206FA04F42243CCF843
:1022480000204A6812F0805F00F09080654A946927
:1022580044F001049461926902F001020192019A2A
:10226800AC08A71C604A52F827C005F00302970083
:102278000F22BA402CEA020C5C4A90424ED002F57A
:102288008062904200F08B8002F58062904200F0FC
:10229800888002F58062904200F0858002F58062B5
:1022A800904200F0828002F58062904234D006228B
:1022B80035E04F4FBC4214D00BD94E4FBC4210D022
:1022C80007F58037BC420CD0A7F58017BC42A7D1D0
:1022D80007E0A7F58017BC4203D007F58037BC425A
:1022E8009ED18C687CB1012C08D04261082697E702
:1022F800CE68083694E7CE680C3691E70261082666
:102308008EE700268CE704268AE700F1040C8AE7AA
:10231800A5F10804A40089E7052200E00022BA40DC
:1023280042EA0C020234304F47F824204A6812F47B
:10233800803F3CD0304C22681A4322604A6812F42D
:10234800003F3AD02C4C62681A4362604A6812F423
:10235800801F38D0284CA2681A43A2604A6812F439
:10236800001F36D0244CE2681343E36001350F2D7B
:1023780035D80122AA400B6813409A42F6D14C681E
:10238800122CB8D095D8022CB2D07FF644AF032CCB
:10239800B7D0112C7FF444AFCE68043640E7012251
:1023A800BDE70222BBE70322B9E70422B7E7124CD4
:1023B800226822EA03022260C0E70F4C626822EA20
:1023C80003026260C2E70C4CA26822EA0302A26020
:1023D800C4E7094CE26822EA0303E360C6E702B0F7
:1023E800F0BC7047001002400000014000080140A6
:1023F80000002110000031100004014083681942D8
:1024080001D1002070470120704712B90904016109
:10241800704701617047C3685940C1607047000048
:1024280070B582B00446036813F0010F34D03E4BF8
:10243800DB6913F0805F48D13B4BDA6942F0805288
:10244800DA61DB6903F080530193019B0125374B67
:102458001B6813F4807F3AD0334B1B6A13F4407324
:1024680011D0626802F440729A420CD02E4A136A64
:1024780023F440702E4901260E6000260E6010627B
:1024880013F0010F37D1284A136A23F440736168A7
:102498000B431362002D3FD1236813F0020F06D0BF
:1024A800214A536823F44043A1680B4353602368CF
:1024B80013F0100F35D01C4A536823F48003616968
:1024C8000B435360002002B070BD0025BFE7174AD8
:1024D800136843F48073136000F05EF80646134BEC
:1024E8001B6813F4807FB7D100F056F8801B64286E
:1024F800F5D90320E7E700F04FF806460A4B1B6AB8
:1025080013F0020FBFD100F047F8801B41F2883367
:102518009842F3D90320D6E7D36923F08053D361D7
:10252800BAE70020CFE700BF00100240007000406B
:10253800400442427047000010B50446074B186833
:10254800074BA3FB00308009FFF734FE0022214629
:102558004FF0FF30FFF7DCFD002010BD0000002029
:10256800D34D621008B5074A136843F0100313608F
:102578000320FFF7BBFD0020FFF7DEFFFFF7DAFFC0
:10258800002008BD00200240024A1368013313608E
:10259800704700BFD4030020014B1868704700BF84
:1025A800D403002030B583B00190FFF7F5FF05464E
:1025B800019CB4F1FF3F00D00134FFF7EDFF401B51
:1025C800A042FAD303B030BD7047000030B482B0E7
:1025D8000023019390F82430012B00F08B800246F1
:1025E800012380F824304B68062B29D80568686BCE
:1025F80003EB8303053B1F249C4020EA04000C687E
:1026080004FA03F303436B630B68092B38D9156885
:10261800E86803EB43031E3B07249C4020EA0400C0
:102628008C6804FA03F30343EB600B68103B012B3F
:1026380034D90020002382F8243002B030BC70471F
:102648000C2B0ED80568286B03EB8303233B1F2450
:102658009C4020EA04000C6804FA03F303432B634C
:10266800D2E70568E86A03EB8303413B1F249C40DB
:1026780020EA04000C6804FA03F30343EB62C3E79F
:102688001568286903EB430307249C4020EA0400EB
:102698008C6804FA03F303432B61C6E713681648F2
:1026A800834205D0936A43F0200393620120C1E777
:1026B800986810F4000F1BD1986840F400009860E7
:1026C8000B68102B01D00020B4E70C4B1B680C4999
:1026D800A1FB03139B0C03EB83035900019102E058
:1026E800019B013B0193019B002BF9D10020A1E73D
:1026F80000209FE70220A0E70024014000000020FE
:1027080083DE1B4330B583B00023019303689A68C6
:1027180012F0010F2ED19A6842F001029A60174B0D
:102728001B68174AA2FB03239B0C019302E0019B41
:10273800013B0193019B002BF9D10446FFF72CFFC5
:10274800054623689B6813F0010F11D1FFF724FF9A
:10275800401B0228F5D9A36A43F01003A362E36A79
:1027680043F00103E362002384F82430012002E0EF
:10277800002000E0002003B030BD00BF00000020B2
:1027880083DE1B4390F82430012B6AD010B5044631
:10279800012380F82430FFF7B5FF024600285BD1FB
:1027A800A36A23F4407323F0010343F48073A36204
:1027B80023682D498B4227D0A16A21F48011A16298
:1027C800596811F4806F05D0A16A21F4405141F491
:1027D8008051A162A16A11F4805F2BD0E16A21F0D7
:1027E8000601E162002184F824106FF002011960EB
:1027F8002368996801F46021B1F5602F1DD09968AC
:1028080041F4801199602AE0A1F58061496811F4CA
:10281800702FD1D0A16A41F48011A162134949688F
:1028280011F4806FD6D0A16A21F4405141F480514F
:10283800A162CFE70021E162D4E70B498B4204D0C3
:10284800996841F4A001996009E0A1F5806149689F
:1028580011F4702FD3D1F3E7002384F82430104605
:1028680010BD022210467047002801400024014094
:1028780038B503689A6812F0010F01D1002038BDFD
:1028880004469A6822F001029A60FFF785FE054621
:1028980023689B6813F0010F0ED0FFF77DFE401BE5
:1028A8000228F5D9A36A43F01003A362E36A43F050
:1028B8000103E3620120E2E70020E0E7002800F0DE
:1028C8008A8070B50446836A002B36D02046FFF70D
:1028D800CFFFA36A13F0100377D1002875D1A26A3D
:1028E80022F4885222F0020242F00202A2626268D6
:1028F80025683A498D4226D0E1690A43E66842EAEA
:102908004602A168B1F5807F27D0012922D06169EC
:10291800012925D0696821F469410B436B6021685E
:102928008D682F4B2B4013438B60A368B3F5807FD2
:1029380027D0012B25D0002126E0C36280F824305F
:10294800FFF742FEC2E7E169B1F5402FD5D14FF458
:102958000021D2E74FF48073D9E74FF48073D6E7AC
:1029680036B9A169013943EA413343F40063D1E739
:10297800A16A41F02001A162E16A41F00101E1622E
:10298800C8E72369013B19052568EB6A23F470033E
:102998000B43EB6223689968124B0B409A420BD0A9
:1029A800A36A23F0120343F01003A362E36A43F01F
:1029B8000103E36201200DE00023E362A36A23F030
:1029C800030343F00103A36204E0A36A43F0100386
:1029D800A362012070BD0120704700BF003C014088
:1029E800FDF7E1FFFE0E1FFF2DE9F84305460268DB
:1029F800136923F44053C1680B4313618368026968
:102A08001343426913430168CA6822F4B05222F0A2
:102A18000C021343CB600268536923F44073816945
:102A28000B4353610268594B9A4257D0FEF7C6FED2
:102A380000EB800000EB80006C68A400B0FBF4F4AD
:102A4800534FA7FB043464092601FEF7B7FE00EBD9
:102A5800800000EB80006C68A400B0FBF4F9FEF77E
:102A6800ADFE00EB800000EB80006C68A400B0FBBA
:102A7800F4F4A7FB043464094FF0640808FB1494C9
:102A880024013234A7FB0434640904F0F00434440C
:102A9800FEF794FE00EB800000EB80006E68B60045
:102AA800B0FBF6F6FEF78AFE00EB800000EB800034
:102AB8006B689B00B0FBF3F0A7FB0030400908FBF4
:102AC80010684FEA081808F13208A7FB0837C7F35F
:102AD80043172B6827449F60BDE8F883FEF77EFE06
:102AE80000EB800000EB80006C68A400B0FBF4F4FD
:102AF800274FA7FB043464092601FEF76FFE00EB9D
:102B0800800000EB80006C68A400B0FBF4F9FEF7CD
:102B180065FE00EB800000EB80006C68A400B0FB51
:102B2800F4F4A7FB043464094FF0640808FB149418
:102B380024013234A7FB0434640904F0F00434445B
:102B4800FEF74CFE00EB800000EB80006E68B600DC
:102B5800B0FBF6F6FEF742FE00EB800000EB8000CB
:102B68006B689B00B0FBF3F0A7FB0030400908FB43
:102B780010684FEA081808F13208A7FB0837C7F3AE
:102B880043172B6827449F60A6E700BF0038014021
:102B98001F85EB51704758B310B5044690F839308B
:102BA8000BB3242384F839302268D36823F4005304
:102BB800D3602046FFF718FF2268136923F4904377
:102BC80013612268536923F02A0353612268D3688A
:102BD80043F40053D3600020E063202384F83930A5
:102BE80084F83A3010BD80F83830FFF7D3FFD8E7C3
:102BF800012070470F4B1A6842F001021A605968A9
:102C08000D4A0A405A601A6822F0847222F480320F
:102C18001A601A6822F480221A605A6822F4FE02A6
:102C28005A604FF41F029A60044B4FF000629A609A
:102C3800704700BF001002400000FFF800ED00E000
:102C48002DE9F04186B040F20C44224600212C4880
:102C580002F02FFD224600212A4802F02AFD2A4CC4
:102C680040220021204602F024FD284B9A6942F0B8
:102C780004029A619A6902F004020092009ADA69E1
:102C880042F40032DA61DB6903F400330193019BFB
:102C98001F4B23604FF4964363600C236361002548
:102CA800E561A5612046FFF776FF0423029301261C
:102CB8000496022303934FF00308CDF81480154FB0
:102CC80002A93846FFF7A2FA039504950823029350
:102CD800CDF814800DEB03013846FFF797FA2A4622
:102CE80031462620FFF714FA2620FFF745FA226816
:102CF800D36843F02003D36006B0BDE8F08100BF7D
:102D0800D8030020F00A0020100F00200010024015
:102D180000440040000801402DE9F04F89B0884B7D
:102D28009A6942F004029A619A6902F004020192D7
:102D3800019A9A6942F008029A619A6902F00802B7
:102D48000292029A9A6942F010029A619B6903F012
:102D580010030393039B4FF00009CDF81890022647
:102D680007964FF0200ACDF810A0764B059304A9DA
:102D78007548FFF74BFA4023049304A97248FFF7FC
:102D880045FA4FF08008CDF8108004A96E48FFF787
:102D98003DFA4FF48064049404A96C48FFF736FAAE
:102DA8004FF40063049304A96848FFF72FFA4FF41F
:102DB8008055049504A96548FFF728FACDF81490C2
:102DC80004950127069704A96148FFF71FFACDF873
:102DD8001890049604A95E48FFF718FA05974FF073
:102DE8000409CDF8109004A95748FFF70FFA1025E9
:102DF80004950DEB05015648FFF708FACDF810A029
:102E08000DEB05015248FFF701FA032305930497D8
:102E18000DEB05014D48FFF7F9F904970DEB050196
:102E28004B48FFF7F3F94FF0080BCDF810B00DEB56
:102E380005014648FFF7EAF904960DEB05014348FA
:102E4800FFF7E4F904950DEB05014048FFF7DEF9BB
:102E5800CDF810A00DEB05013C48FFF7D7F9CDF8E8
:102E680010900DEB05013948FFF7D0F9CDF810B0F7
:102E78000DEB05013648FFF7C9F9CDF810900DEBB9
:102E880005013348FFF7C2F90596402304930DEB7B
:102E980005012E48FFF7BAF9CDF810800DEB0501B2
:102EA8002A48FFF7B3F94FF48079CDF810900DEB6D
:102EB80005012648FFF7AAF9CDF810800DEB0501AA
:102EC8002348FFF7A3F904970DEB05011E48FFF708
:102ED8009DF904960DEB05011B48FFF797F9CDF80E
:102EE80010900DEB05011A48FFF790F94FF40073A5
:102EF80004930DEB05011648FFF788F904940DEBD0
:102F080005011348FFF782F94FF4005304930DEBC2
:102F180005010D48FFF77AF94FF4804304930DEB50
:102F280005010948FFF772F94FF4004304930DEBCC
:102F380005010548FFF76AF909B0BDE8F08F00BF41
:102F48000010024000003110000C01400010014048
:102F5800000801402DE9F04F99B0754B9A6942F489
:102F680000629A619A6902F400620192019A9A6970
:102F780042F400529A619B6903F400530293029B46
:102F88006C4EDFF8B891C6F80090002474604FF0DA
:102F98002008C6F808804FF4FA6BC6F80CB0346104
:102FA8007461B4613046FEF714FF1023169317942A
:102FB80016A93046FFF742F860230F931094119436
:102FC80008271297139414944FF40073159322460C
:102FD8000FA93046FEF74EFF04220FA93046FEF730
:102FE80049FF3A460FA93046FEF744FF4FF4006305
:102FF80008934FF4806309930A94CDF82C800C94BD
:103008000D940E940DEB08013046FEF7EBFF4A4D88
:10301800DFF82CA1C5F800A06C60C5F80880C5F8D9
:103028000CB02C616C61AC612846FEF7D2FECDF87D
:1030380058808023179316A92846FEF7FFFF0494AB
:1030480018A9052341F8543D2846FEF77CFD602366
:103058000F93109411941297139414944FF40073CF
:10306800159322460FA92846FEF704FF04220FA94C
:103078002846FEF7FFFE3A460FA92846FEF7FAFE55
:103088004FF4006308934FF4806309930A94CDF8D2
:103098002C800C940D940E940DEB08012846FEF735
:1030A800A1FFDAF8443023F40043CAF84430D9F8D1
:1030B800443023F40043C9F8443021462846FEF73B
:1030C80055FF04212846FEF751FF39462846FEF7EA
:1030D8004DFF21462846FEF773FF04212846FEF7D8
:1030E8006FFF39462846FEF76BFF21463046FEF74C
:1030F8003DFF04213046FEF739FF39463046FEF7DA
:1031080035FF21463046FEF75BFF04213046FEF7C7
:1031180057FF39463046FEF753FF2B6801221A63E2
:103128003268136843F00103136019B0BDE8F08FEB
:103138000010024030090020500F0020002C0140F0
:10314800003401402DE9F04186B0424EB36943F4A2
:103158000073B361B36903F400730093009B3E4CA2
:103168003E4B23604FF48073A3600025E5606561E2
:103178004FF44023E36165604FF00508C4F8108000
:103188002046FFF79BFB364A536843F4802353607D
:1031980006A94FF4C02341F8043D2046FEF77AFF04
:1031A800012304930E220292039302A92046FFF7FB
:1031B8000DFA02950227039702A92046FFF706FA9F
:1031C80004970B2702970323039302A92046FFF7CE
:1031D800FDF90C2302930423039302A92046FFF769
:1031E800F5F90723049310230293CDF80C8002A964
:1031F8002046FFF7EBF92268936843F4000343F491
:1032080080739360936843F001039360736943F09C
:1032180001037361736903F001030193019B114B6F
:103228001D60C3F80480104A9A60104ADA6040F6BC
:10323800A2221A601A6842F001021A602A46294638
:103248003846FEF765FF3846FEF796FF06B0BDE83C
:10325800F08100BF001002407C0A002000240140D9
:1032680000000140080002404C240140FC0E0020F0
:10327800F0B585B0284B9A6942F480629A619B69DF
:1032880003F480630093009B244C254B23604FF488
:103298008073A3600023E36063614FF46022E261FE
:1032A8006360052626612046FFF708FB0123039388
:1032B8000F220192029301A92046FFF787F90D23F7
:1032C80001930225029501A92046FFF77FF903958E
:1032D8000A2301930327029701A92046FFF776F9ED
:1032E8000195042302930DEB03012046FFF76EF9C5
:1032F800072303930197029601A92046FFF766F971
:1033080023689A6842F480729A609A6842F00102CF
:103318009A6005B0F0BD00BF00100240AC08002064
:1033280000280140FEE7000000B589B000221146E0
:103338001D20FEF7EDFE1D20FEF71EFF1F4BDA696C
:1033480042F00202DA61DB6903F002030193019B98
:103358001B481C4B03604FF6FF1343600023836038
:103368006422C26003618361FEF71AFDB0B908A93F
:103378004FF4805341F8103D1148FEF760FB90B9B7
:1033880000230293039302A90D48FEF757FE78B96C
:103398000B48FEF747FB09B05DF804FB4FF4417199
:1033A8000948FFF7BFFF40F20A310748FFF7BAFFA5
:1033B80040F211310448FFF7B5FF00BF001002408A
:1033C800B4090020000400408469000838B51C4B8B
:1033D80000221A701B4B1C682046FDF77BF8002260
:1033E8000023FDF753FB48B16442132CCCBF0024E3
:1033F8000124FCB10025144B1D700FE0132CCCBF29
:1034080000240124F5E7114B1B6800225A620120B1
:10341800FFF7C8F80134312CF5DD0135072D03DC41
:103428000B4B1D700024F6E7002220210948FEF707
:10343800ECFFFEE7084B4FF47A721A6038BD00BF04
:1034480070030020B40F002064030020B40900209A
:1034580060030020000801405C03002030B597B0ED
:1034680002250C9501231093102311931395002422
:1034780014944FF4601315930CA8FDF7B7FE0F23AF
:103488000793089509944FF480630A930B9429468F
:1034980007A8FEF7D1F801954FF44043039301A81C
:1034A800FEF7BEFFFEF784F9084BA3FB0030800946
:1034B800FEF780FE0420FEF793FE224621464FF0D9
:1034C800FF30FEF725FE17B030BD00BFD34D6210A8
:1034D8002DE9F04F8FB0FFF745F8B74CA36943F0DB
:1034E8000103A361A36903F001030593059B03206E
:1034F800FEF7FCFD002211466FF00B00FEF708FEF8
:10350800002211466FF00A00FEF702FE0022114663
:103518006FF00900FEF7FCFD002211466FF0040071
:10352800FEF7F6FD002211466FF00300FEF7F0FDEE
:10353800002211466FF00100FEF7EAFD0022114655
:103548004FF0FF30FEF7E4FDFFF788FF636923F0D3
:1035580001036361FFF7E0FBFFF7FCFCFFF7F2FDF7
:10356800FFF786FE012220219448FEF74EFF94487B
:10357800FFF708F99348FFF705F9FFF761FB0824FF
:1035880005E0914B1C706420FFF70CF8013C002CFF
:10359800F7DA00248C4B1C70012204218B48FEF7BB
:1035A80034FF01F011FE8A4B188AFDF7C5FB039022
:1035B800884800F019FF0125874B1D70FFF7B4FEFE
:1035C800864B1D70A34611E2824800F0CEFE01F042
:1035D800BFFD804800F072FE0028F5DC804BB3F98F
:1035E8000250804A1560B3F900807F4BC3F8008011
:1035F800DFF82892D9F80000FCF76CFF68A3D3E93C
:103608000023FCF7D1FF06460F462846FCF762FF69
:1036180065A3D3E90023FCF7C7FF02460B463046F3
:103628003946FCF70BFEFDF759FA0546C9F80000C4
:10363800DFF8E491D9F80000FCF74CFF58A3D3E970
:103648000023FCF7B1FF06460F464046FCF742FF51
:1036580055A3D3E90023FCF7A7FF02460B463046E3
:103668003946FCF7EBFDFDF739FAC9F80000FCF71D
:1036780031FF8146884601F1004A2846FCF72AFFB7
:1036880006460F4602460B4648465146FCF7D4FD0F
:10369800CDE900010022554BFDF716FA68B944A39D
:1036A800D3E90023DDE90001FDF7F0F918BBDDE9F6
:1036B8000001FDF713FA054601E04FF47A754A4612
:1036C800434630463946FCF7B7FD06460F4600220A
:1036D800464BFDF7F9F980B935A3D3E90023304605
:1036E8003946FDF7D3F9002855D130463946FDF75C
:1036F800F5F9064603E03E4DE1E74FF47A7604F12A
:103708003203B34213DD323CB44210DA0BF1320318
:10371800AB420CDDABF1320BAB4508DA354B1B681D
:10372800042B04D8344B1D607342344A1360344B65
:103738001A68344BA3FB0213DB0803EB830303EB88
:1037480083039A426CD002211C48FEF757FE38B119
:103758002D4B1B6823B92D4B1B68002B00F0B28042
:103768002B4B1C682B492046FDF7DCFC002800F099
:10377800C480294B1F683846FCF7ACFE00220023A2
:10378800FDF784F9002840F0B480132F00F3B580CA
:10379800FFF71CFEC8E0164EB1E700BFAFF300808C
:1037A800CDCCCCCCCCCCEC3F9A9999999999B93F8E
:1037B8000000000000408FC00010024000080140D7
:1037C8007C0A0020AC08002060030020000C0140A7
:1037D800FC0E0020F00A0020700300205403002093
:1037E80094030020C40F0020A40F002000408F4045
:1037F80018FCFFFF04000020840300208003002041
:10380800940F00201F85EB518C03002088030020B3
:1038180008000020CCCC0642B40F0020A80F0020DE
:103828000398FCF769FE88A3D3E90023FCF7BCFEE4
:1038380080468946884C208AFDF77EFAFCF75CFEB4
:1038480083A3D3E90023FCF7AFFE02460B464046AC
:103858004946FCF7F3FCFDF769F9804603907F4978
:10386800FDF7B8F97E49FDF7BFFA7E49FDF7B4F9CF
:10387800074629B2022000F00FFD31B2032000F004
:103888000BFDA18909B2042000F006FD7649774BAB
:103898001868FDF7A9FAFDF76DFC01B2052000F0E4
:1038A800FBFC4046FDF766FC01B2062000F0F4FC84
:1038B8003846FDF75FFC01B2072000F0EDFC00F090
:1038C800F1FC40E700246A4B1C7002216948FEF7AE
:1038D80095FD58B1684B1B6800225A62671C04EBBF
:1038E800D4746010FEF75EFE3C46EEE7FFF76EFD0F
:1038F80036E77F42132F7FF74BAF60492046FDF72D
:1039080011FC58B15E492046FDF72AFC30B15D4BE9
:1039180005221A705C4B06221A7005E05B4B1B8867
:10392800E3B1013B594A13803046FCF7D3FD00222E
:103938000023FDF7ABF8B8B9322E18DC2846FCF79F
:10394800C9FD00220023FDF7A1F800285BD1322D24
:103958000DDC4F4A1368013313600BE00023494A1A
:103968001370494A1370DFE77342322BE6DD484B88
:1039780000221A60464B1A68464B9A4247D8464B73
:103988001B68002B2CDD013B434A1360434981FB34
:103998000321DA17C2EBE1124FF4C87101FB1232AE
:1039A800002A3AD03C4B1B68B3F5FA6F09DC354A5C
:1039B80003211170344A01211170344A4FF47A718D
:1039C8001180B3F57A7F09DC2E4A022111702E4A44
:1039D800012111702D4A4FF47A711180002B2CDDD2
:1039E800254B1B6800225A623446AB460520FEF779
:1039F800D9FD2B4B1B68002B7FF4EBAD294A1368CC
:103A080001331360E5E56B42322BB0DCA1E7204BB4
:103A180000221A60FFF7DAFCB1E703EB8303224ABE
:103A280082FB0312DB17C3EBA212204906A801F0A0
:103A38007DFE06A800F090FCB4E7174B00221A6040
:103A4800FFF7C4FCCCE700BFAE47E17A14AEEF3F06
:103A58007B14AE47E17A843FFC0E002000E0CE44A0
:103A6800083748BE33330F420000C8420800002020
:103A78007003002000080140B409002000000C4237
:103A8800CCCC0642600300206403002056030020CB
:103A9800940F0020E09304005C0300201F85EB5185
:103AA800A803002004000020D34D6210906900088C
:103AB80008B52AE0194B00225A639A63DA63596CF5
:103AC80021F400415964A3F500635A639A63DA63E9
:103AD800596C21F400415964114B1A60114B1A605A
:103AE800114B1A70114B06211960114B1A60114BBA
:103AF8001A60114B1A60114B1A60114B1A60114B66
:103B08001A6020211048FEF780FC104B1B78002B10
:103B1800D0D10E4B01221A7008BD00BF00340140FD
:103B2800A80F0020B40F002070030020040000201C
:103B38008003002084030020880300208C030020D9
:103B4800C40F0020A40F00200008014054030020E7
:103B5800774B02225A60774B1B68B3F57A7F5EDB9E
:103B68002DE9F041744B1A68744BA3FB02139B09AF
:103B78004FF47A7101FB13230BBB714C2068FCF7DF
:103B8800BBFC65A3D3E90023FCF70EFD06460F46F0
:103B98006C4B9889FDF7D0F86B49FDF725F9FCF7D0
:103BA800ABFC5FA3D3E90023FCF7FEFC02460B46FF
:103BB80030463946FCF742FBFCF7B8FF2060614B02
:103BC8005889624B1C68001BFCF784FC56A3D3E998
:103BD8000023FCF7E9FC00220023FCF757FF00282C
:103BE80052D1584B5889001BFCF774FC4EA3D3E9FB
:103BF8000023FCF7D9FC0022554BFCF765FF002891
:103C080052D1544B1B68052B4ED8534B1B78002BB5
:103C18004AD0524A536C43F40043536449E0013399
:103C2800444A1360474A90884D490B68034403EBA4
:103C3800D3735B100B60D0884A490B68034403EBCD
:103C4800D3735B100B60108847490B68034403EB80
:103C5800D3735B100B60508844490B68034403EB33
:103C6800D3735B100B60508938490B68034403EB2E
:103C7800D3735B100B6011893D4A13680B4403EB47
:103C8800D3735B10136070472E4B5889001BFCF7E9
:103C980021FC25A3D3E90023FCF786FC0022354B41
:103CA800FCF7F4FE0028ACD02C4A536C23F40043F4
:103CB8005364244B18892E4B1C68001BFCF70AFC24
:103CC80019A3D3E90023FCF76FFC00220023FCF7BB
:103CD800DDFE002852D11B4B1889001BFCF7FAFBAC
:103CE80011A3D3E90023FCF75FFC0022184BFCF773
:103CF800EBFE002852D1174B1B68052B4ED8164BEC
:103D08001B78002B4AD01C4A536C43F4004353647D
:103D180049E000BFAFF30080AE47E17A14AEEF3F51
:103D28007B14AE47E17A843F7B14AE47E17A943F37
:103D3800000002407403002068030020D34D621085
:103D480008000020FC0E002017B9CE3C0C00002013
:103D580000002E40040000207003002000340140C1
:103D680014000020180000201C0000202000002063
:103D78001000002000002EC0002C0140904B188934
:103D8800001BFCF7A7FB8CA3D3E90023FCF70CFC72
:103D980000228C4BFCF77AFE0028ACD08A4A536C80
:103DA80023F40043536489498B6813F0200F0CBF38
:103DB800012300238A6812F0400F0CBF0122002261
:103DC800896811F0800F0CBF01250025804988689B
:103DD80010F4806F0CBF012000208C6814F4006F71
:103DE8000CBF01240024896811F4805F02EB4502AE
:103DF80003EB4203774EF35C77490B600B6803F1E2
:103E080002030B600D68754B83FB0572A2EBE5722C
:103E180002EB42024FEA4207A5EB07020A600CBF19
:103E280002220022224400EB4202B05C6C4A10607D
:103E3800106802301060106883FB0043A3EBE07346
:103E480003EB43035C00031B136009685C48838829
:103E5800644A12689A1AC388634800681B1A0529BD
:103E680034D8DFE801F0032326292C2FD31A5F4A20
:103E780013605F4A1368013313605E4A14684CB3D9
:103E88005D4AA2FB0312120B5C4909680131B2FBBF
:103E9800F1F001FB1022EAB9B3FBF4F204FB123390
:103EA800EBB910215648FEF7B6FA18E04F4B1A60E6
:103EB800DFE74E4B1A60DCE74C4A1360D9E74B4A00
:103EC8001360D6E79B1A494A1360D2E7474B002292
:103ED8001A60CEE7002210214948FEF796FA494BAE
:103EE800D3F800C03C4B1B68052B2BD8DFE803F048
:103EF8000312171C2226CCF1000064469C46424B54
:103F08001968374B1B68052B52D8DFE803F01F3FB1
:103F180043474B4E6446CCF1000C0020EFE7604667
:103F2800CCF1000C0024EAE7CCF1000460464FF025
:103F3800000CE4E7CCF100040020E0E7CCF100003D
:103F48000024DCE7002004468446D8E74E420F46AA
:103F580019462C4B1B68002B40F398802B4B1D688F
:103F68001D4B1B6805331D4A82FB03E2A2EBE3727B
:103F780002EB42024FEA420EA3EB0E02052A00F2C0
:103F8800B980DFE802F0456A6F74797E0F464942CE
:103F98000026DEE70E4649420027DAE74F420E4682
:103FA8000021D6E74F420026D3E74E420027D0E74C
:103FB800002637463146CCE77B14AE47E17A943F7A
:103FC800FC0E002000002EC0002C0140000C014017
:103FD80000100140A469000878030020ABAAAA2AAF
:103FE8007C03002014000020180000206C0300202F
:103FF80068030020600300205917B7D1640300202C
:10400800000801408003002084030020880300206A
:10401800C5F10008AE461546654474444044964BC5
:104028001B68002B40F3D780944B1B68944A126896
:1040380002F1050C934A82FB0CE2A2EBEC7202EB54
:1040480042024FEA420EACEB0E02052A00F2F9805A
:10405800DFE802F058A8ADB2B7BCAE466D424FF0EB
:104068000008D9E7A8466D424FF0000ED4E7C5F125
:10407800000EA8460025CFE7C5F1000E4FF0000856
:10408800CAE7C5F100084FF0000EC5E77E4B1D6872
:10409800C5F1000E7D4B1A6801327A4B83FB02830F
:1040A800A3EBE27303EB43034FEA4308A2EB0803D5
:1040B800052B1AD8DFE803F00323060A0E14A846D6
:1040C8001D46A9E7F0464FF0000EA5E7F046AE46BC
:1040D8000025A1E72B4675469E464FF000089BE752
:1040E800A84675464FF0000E96E74FF00008C64602
:1040F800454691E74FF00008C64645468CE74FF025
:10410800000889E7C3F100089E461346194407EBE7
:104118000E0206EB080305F57A7540F2C676B5423D
:1041280000F397800A2DB8BF0A25594E756304F528
:104138007A7440F2C675AC4200F38E800A2CB8BF80
:104148000A24534DAC6300F57A7040F2C674A0425D
:1041580000F385800A28B8BF0A204D4CE06301F5BA
:104168007A7140F2C67081427CDC0A29B8BF0A2104
:104178004848416302F57A7240F2C6718A4274DC9B
:104188000A2AB8BF0A2243498A6303F57A7340F2C0
:10419800C67293426CDC0A2BB8BF0A233D4AD3632C
:1041A800BDE8F0819E465B424FF00008AEE79846B6
:1041B8005B424FF0000EA9E7C3F1000E98460023BA
:1041C800A4E7C3F1000E4FF000089FE7C3F1000811
:1041D8004FF0000E9AE7294B1B68C3F1000E284ADE
:1041E80012680132DFF89CC08CFB028CACEBE27CDD
:1041F8000CEB4C0C4FEA4C08A2EB080CBCF1050F79
:104208001AD8DFE80CF00323060A0E149846634612
:104218007CE7F0464FF0000E78E7F0469E46002314
:1042280074E71A46734696464FF000086EE79846BC
:1042380073464FF0000E69E74FF00008C646434644
:1042480064E74FF00008C64643465FE74FF00008B2
:104258005CE740F2C67568E740F2C67471E740F261
:10426800C6707AE740F2C67182E740F2C6728AE702
:1042780040F2C67392E700BF840300208C0300203D
:104288007C030020ABAAAA2A880300207803002018
:1042980000340140002C0140014B23F810107047F6
:1042A8003010002070470000034B1A68D36843F0B1
:1042B8008003D36001207047100F0020D0F800342D
:1042C800D0F80404181A00D4704700F58060FBE7A2
:1042D80038B504460D46FFF7F1FF40F2FD3398422A
:1042E8000FDCD4F80034E554D4F8003401335A42D2
:1042F800C3F30903C2F3090258BF5342C4F8003498
:1043080038BDD4F808340133C4F80834F8E700009D
:1043180070B506460D460F48FFF7D0FF2844013018
:1043280040F2FD33984201DC00240DE0094AD2F83E
:1043380008340133C2F808344FF0FF3008E0315D2B
:104348000448FFF7C5FF0134AC42F8DBFFF7ACFFC8
:1043580070BD00BFD803002010B50446FBF760FF0E
:1043680001462046FFF7D4FF10BD0246D0F80014DE
:10437800D0F80434994210D0D0F80434C05CC0B2EC
:10438800D2F8043401335942C3F30903C1F30901D4
:1043980058BF4B42C2F804347047002070470000F1
:1043A80010B50446036813F0800F04D1236813F096
:1043B800200F0ED110BD0A48FFF780FF20B9E3682F
:1043C80023F0C003E360F1E70548FFF7CEFF606024
:1043D800ECE76168C9B20348FFF77AFFEAE700BF74
:1043E800D8030020F00A0020D0F80034C0F80434C4
:1043F80070470000054B1978054A11705988054A1D
:1044080011805A78044B1A70704700BF900300203F
:10441800600300205603002064030020054B064A71
:1044280012781A70054A12885A80054A12785A700A
:10443800704700BF9003002060030020560300204F
:1044480064030020064A1168064B196052685A60D6
:10445800054B1A68054B5A60054A12689A607047FE
:104468004C000020B40300208003002094030020A7
:1044780084030020034B01221A60034B00221A60B8
:10448800704700BFA403002004000020074BD96830
:10449800074A1160D9681869091A9160D96A516088
:1044A800D96A1B6BCB1AD360704700BFD0130020AA
:1044B80040100020034A1168034B196152681A63BF
:1044C800704700BF40100020D013002000000000FB
:1044D8002DE9F04F8FB0A04B00221A7041383728D1
:1044E80000F2FE81DFE810F0C500FC01FC013A0093
:1044F800FC01FC01CB019D01FC01FC01FC01FC015C
:10450800FC01FC01E801FC017A01FC013C00FC0112
:10451800FC01FC0138005F01FC01FC01FC01FC010D
:10452800FC01FC01FC01FC01C500FC01FC013A0096
:10453800FC01FC01CB019D01FC01FC01FC01FC011B
:10454800FC01FC01E801FC017A01FC013C00FC01D2
:10455800FC01FC0138005F01012303E001238AE02C
:104568004FF0FF337D4A127832B97D490A607D49A0
:104578000A607D490A804A80784A012111707B4A85
:10458800002111607A4A1468012C40F0AB8103EBDA
:1045980083025500724A11680D441560724903EB95
:1045A80083035A000B881A440A802846FBF792FFB7
:1045B80083468A4601F100476A4B1E683046FBF77E
:1045C80089FF8046894602460B4658463946FBF71E
:1045D80033FECDE90C010022664BFCF775FA68B989
:1045E8005BA3D3E90023DDE90C01FCF74FFA18BB04
:1045F800DDE90C01FCF772FA074601E04FF47A771F
:104608005D4B5F605A46534640464946FBF714FEE9
:10461800804689460022574BFCF756FA70B94CA3DE
:10462800D3E9002340464946FCF730FAF8B940463A
:104638004946FCF753FA03E0504FE1E74FF47A702C
:104648004D4B18600197009033462A464C49424822
:1046580001F06CF8404D2846FBF7E2FD494B1B681A
:1046680001462846984720460FB0BDE8F08F4348DA
:10467800E6E74FF0FF33394A127832B938490A6011
:1046880038490A6038490A804A80344A0121117041
:10469800364A00211160364A1468012C40F0248102
:1046A80003EB830255002F4A11680D4415602E490B
:1046B80003EB83035A004B881A444A80284B1E6830
:1046C8003046FBF707FF83468A4601F10047284634
:1046D800FBF700FF8046894602460B465846394696
:1046E800FBF7AAFDCDE90C010022224BFCF7ECF9FF
:1046F80068B917A3D3E90023DDE90C01FCF7C6F973
:1047080018BBDDE90C01FCF7E9F9074601E04FF4B5
:104718007A77194B5F605A46534640464946FBF73D
:104728008BFD804689460022124BFCF7CDF958BB19
:1047380007A3D3E9002340464946FCF7A7F980BB05
:1047480040464946FCF7CAF920E00C4FE1E700BFB4
:104758000000000000408FC06C1100207003002092
:10476800B0030020BC0300209403002004000020B4
:10477800A403002000408F404C00002018FCFFFFDD
:10478800AC690008580100204FF47A70574B186044
:10479800019700902B4632465549564800F0C6FF0F
:1047A80058E75548F2E70023544A1360544A136007
:1047B800544A138053804D4A53601360524A5363DE
:1047C8005361524A13704B4A514B03CB10605160EE
:1047D80019889B781181937201243BE700234D4A85
:1047E8001360464A1360464A1360464A1380538052
:1047F8003E4A53601360444A53635361464A136008
:10480800424A13703B4D454C0FCC28606960AA6042
:10481800EB6007CC28616961AA612388AB83012416
:1048280018E739490A68CB684C684D698E69CF69C1
:104838003B48D0F82CC0D1F820E0D1F82C80D1F832
:104848002490D1F834A0D1F838B0C96BC06D0B9062
:104858000A91CDF824B0CDF820A0CDF81C90CDF861
:104868001880CDF814E0CDF810C003970296019592
:1048780000942C491F4800F059FF0124EAE62A4811
:1048880082682A4B9B682A498C6801F580618D688B
:1048980001F580618E6881688068C0F300300490FB
:1048A800C1F34001039102960195009421491148F2
:1048B80000F03CFF0124CDE6174D2C687820FFF767
:1048C80007FE621C02F0010248BF52422A601A4BDE
:1048D80053F822301949074800F028FF0124B9E6A7
:1048E8000024B7E60124B5E60124B3E64C00002015
:1048F800AC6900086C11002018FCFFFFB003002011
:10490800BC03002094030020D01300207003002073
:10491800E4690008A8030020A4030020F069000847
:1049280070130020106A000800080140000C0140C4
:1049380000100140806A000870000020BC6A00086E
:1049480010B5441C0022134604E021785B1ADBB240
:104958000132013441789142F7DC4A1E02449370D7
:10496800024B1B680231984710BD00BF5801002058
:1049780000B583B0044B1B6802A840F8043DFFF75C
:10498800DFFF03B05DF804FB5069000800B583B091
:10499800044B5B6802A840F8043DFFF7D1FF03B061
:1049A8005DF804FB5069000800B583B06B46054A02
:1049B80092E8030083E803001846FFF7C1FF03B03D
:1049C8005DF804FB58690008F0B589B004460B4649
:1049D800A14A07CA08AD05E90700A04A00211170DD
:1049E80001E00134013B22780AB9002BF9DC002BE5
:1049F80000F0CC809A4991F9001011B9752A40F05D
:104A0800C580A2F13F01362900F2B882DFE811F033
:104A18003700B602C000B602EA00B602F100B602DC
:104A280016011D015401B602B602A602B60298018B
:104A3800B6029F01B602B602B602F601B602B60287
:104A4800B602B602B602B602B602B602B602B6029E
:104A5800B602B602C000B602EA00B602F100B6021B
:104A680016011D015401B602B602A602B60298014B
:104A7800B6029F01B602B602B602F6013902774CB9
:104A880058227849204600F009FE2046FBF7C8FB6B
:104A9800754D2B680146204698476D22734920467C
:104AA80000F0FCFD2046FBF7BBFB2B6801462046C7
:104AB8009847A2226E49204600F0F0FD2046FBF7F9
:104AC800AFFB2B680146204698475022694920468B
:104AD80000F0E4FD2046FBF7A3FB2B6801462046C7
:104AE80098474B226449204600F0D8FD2046FBF742
:104AF80097FB2B68014620469847002410E0574D45
:104B080000925E4A40F2FF11284600F0DBFD28467D
:104B1800FBF786FB544B1B6801462846984701342F
:104B2800062C0FD8564B03EB4413D3F80520002A64
:104B3800F5D0534B03EB4413D3F80130002BDED1EF
:104B4800504BDCE7454C504D0FCD20606160A260B2
:104B5800E3602046FBF764FB434B1B680146204695
:104B68009847002323703D4C2046FBF759FB474DDF
:104B78002B68014620469847454B1B8823802046D2
:104B8800FBF74EFB2B6801462046984709B0F0BD5D
:104B98000022029203920492012B1ADC029A22B19B
:104BA800049B13B94FF47A7304933A4B1A70039B1E
:104BB80039490B700499394C84FB0104C817C0EBC0
:104BC8006400374C208000913649244800F0AEFD3F
:104BD800C9E704AB009303AB02AA3349601C00F099
:104BE800C5FDDBE76320FFF773FC1C4B00221A703E
:104BF800B9E7012B12D0637843F02003732B13D04D
:104C0800637843F02003632B14D0284B1B68284A91
:104C180012682849114800F089FDA4E70023244AB6
:104C28001360224A1360F0E70123204A1360204AE8
:104C38001360E5E71E4B01221A60E6E76720FFF7DD
:104C480047FC064B00221A708DE76820FFF740FCEE
:104C5800024B00221A7086E7946E00086C1100203F
:104C6800AC030020D86A00085C010020306B000803
:104C7800A06B0008446C0008946C0008E06C000805
:104C8800780000207C6E0008F06C000858010020B5
:104C9800746D000860030020640300206766666680
:104CA800560300200C6D0008006D00082800002045
:104CB80024000020246D0008002291490A609149CF
:104CC8000A6091490A804A8090494A600A6090497E
:104CD800C868904A1060C96A5160012B19D063787E
:104CE80043F02003772B7FF43EAF01238A4A1360F9
:104CF8008A4A13608A4E8B4C06F1400735460FCD21
:104D080020606160A260E3602E461034BD42F5D198
:104D180029E7814B01221A60834C824D04F1200758
:104D280026460FCE28606960AA60EB6034461035CD
:104D3800BE42F5D103CC2860696023882B8112E735
:104D48006E20FFF7C5FB774B00221A700BE7012B8B
:104D58000FD0637843F02003722B19D0637843F0A7
:104D68002003652B2CD10023704A1360704A13600E
:104D780005E06E4B01221A606D4B00221A606C4BE5
:104D88001B686A4A12686B49664800F0CFFCEAE67D
:104D9800644D694E0FCE28606960AA60EB60337875
:104DA8002B742846FBF73CFA644B1B6801462846DF
:104DB80098474FF4FA70FDF7F5FBFDF7E9F9CDE7F1
:104DC80008AA4FF0FF3342F8103D5D49601C00F01F
:104DD800CDFC049A002AD2DB1AB9554B01221A607D
:104DE800CDE74FF47A7303FB02F3564A82FB0312B2
:104DF800DB17C3EB62034E4A1360C0E7012B1FDDCC
:104E08006378413B332B2FD8DFE803F02C2E2E2E6E
:104E18002E2E2E2E2E2E2E2E2E352E2E2E2E2E3899
:104E28002E2E2E2E2E2E2E2E2E2E2E2E2C2E2E2E9C
:104E38002E2E2E2E2E2E2E2E2E352E2E2E2E2E3879
:104E4800414C384D04F1200726460FCE2860696092
:104E5800AA60EB6034461035BE42F5D103CC286019
:104E6800696080E6FFF792FD2E4B384A11889278E8
:104E780019809A7077E6FFF77BFDF5E7FFF794FD59
:104E8800F2E70A2B01DD002514E0264D304C0FCC4B
:104E980028606960AA60EB6023782B7463E6214D73
:104EA8002B4C0FCC28606960AA60EB6023782B74C8
:104EB80059E601350A2D3FF756AE625D08AB2B4423
:104EC80013F80C3C9A42EAD10A2DF2D1214B012267
:104ED8001A70214F134E07F1200EBC46BCE80F0094
:104EE80030607160B260F36067461036F445F4D103
:104EF800DCF800003060BCF80430B380D9E700BFAC
:104F0800B0030020BC030020940300204C000020C4
:104F1800D01300202C000020A8030020A4030020A8
:104F2800786D00086C1100204C6D000858030020B3
:104F38005C030020D06D0008B86D00085C010020FB
:104F4800CC6D000867666666006E0008D46A0008C3
:104F5800286E0008AC0300203C6E00080A4B0022B3
:104F68001A700A4D0A4C0FCC28606960AA60EB6081
:104F780003CC2861696123782B76F4E50549034859
:104F880000F0D4FBEFE500BFAC0300206C1100205B
:104F9800646E0008806E000830B583B08DF8070095
:104FA8001B4B1B6813B11B4B1B68E3B19DF8073003
:104FB8000D2B21D1184B1B6801210DF107009847D3
:104FC800144C2168154800254554FFF7FDFC256061
:104FD8003E238DF80730104B1B6801210DF10700A7
:104FE800984703B030BDC0B2FFF772FA0028DDD091
:104FF8003E238DF80730EEE70A2BDBD0054A12680E
:10500800132AE8DC501C0349086004498B54E2E782
:10501800A8030020A0030020580100205010002001
:1050280038B504468378423B152B00F28780DFE8C9
:1050380003F077858585858585858585858585853D
:10504800858536858085856C404B03EB45131B6948
:1050580003B198473D4B03EB4513D3F80A100022E0
:1050680004E00878A318187101320131374B03EBBB
:1050780045139B7B9342F4DC043363702046FFF7AF
:105088005FFC324B03EB45135B6903B19847072D6F
:105098004ED1042363702046FFF752FC48E00025F8
:1050A800062DF4D86B01294AD25CE3789A42CBD01A
:1050B8000135F5E7254B03EB45139B6903B1984789
:1050C800224B03EB4513D3F80A10002204E0A3187F
:1050D8001B790B70013201311C4B03EB45139B7B91
:1050E8009342F4DC032363702046FFF729FC174B37
:1050F80003EB4513DB6903B19847072D18D1042347
:1051080063702046FFF71CFC12E00025062DF4D83A
:105118006B010E4AD25CE3789A42CBD00135F5E7B1
:10512800FFF734FC4FF4FA70FDF73CFAFDF730F85E
:1051380038BD74238370FFF703FCF9E73F238370BE
:1051480002234370FFF7FCFBF2E700BF7800002062
:1051580008B51B4B1B78012B0FD013B1022B16D0AF
:1051680008BD022806D1164B187201221A700022B7
:105178005A70F5E7FFF710FFF2E7114B587200225B
:105188009A705A781044587002221A70E8E70C4B4B
:1051980099784A1CD2B29A7019448872597808448E
:1051A800C0B258705B7A9A42DAD128B1FFF7E0FBB7
:1051B800034B00221A70D3E70248FFF731FFF7E7E5
:1051C800641000206C10002070B582B0304C402272
:1051D8000021204600F06DFA2E4D6022002128465D
:1051E80000F067FA4FF0FF33AB620126AE652A4B39
:1051F8001868FBF781F924A3D3E90023FBF7D4F956
:105208000022264BFBF7FAFAFBF790FCA060A0629D
:10521800234BDA6942F00402DA61DB6903F0040324
:105228000193019B1F4C204B23604FF4A0736360D4
:105238000025A5604FF6FF73E36025616561A561F0
:105248002046FCF7ADFD2046FCF7DFFB2268D3685B
:105258003343D3602A4631461E20FCF759FF1E20EF
:10526800FCF78AFF2A4603211720FCF751FF172075
:10527800FCF782FF2A4603212820FCF749FF282053
:10528800FCF77AFF02B070BDEA2E4454FB210940B6
:10529800D0130020701300206401002000805640C5
:1052A8000010024010140020000800402DE9F04FC3
:1052B80083B072B65D4B1B685D6A5D4BD3E90067CE
:1052C8005C4B9B6803F0E003DB43C3F342135A4A89
:1052D800D3705A4B9B6803F4E053DB43C3F3822338
:1052E80082F8333062B6002412E0554B03EB4413C6
:1052F800DA690132DA616200224411014E4B0B4433
:10530800DA78D2B21A71D3E90201C3E9040101348F
:10531800012C00F38880620022441101464B0B44A3
:105328001A79D2B2DB78DBB29A42F0D0424B0B4406
:105338001B79002BDFD0404B03EB010A0523CAF889
:105348002430390441EA1641300440EA05020B468C
:10535800CAE90223DAE90201DAE90423801A80465D
:105368009AF804309AF80320C3EBC3031344354A70
:1053780052F82320DAF8283003FB02F3CAF8203069
:105388002F4A6301D1180191D158DAF8200001445D
:10539800D150D058FBF7D4FCFBF7ECFE019AD2F8B9
:1053A80008B0FBF7CDFC5946FBF71EFDFBF7E2FE04
:1053B800019BD860C3F81880DAF82030002B94D00D
:1053C8001F4B03EB4418D8F81800FBF7B5FCFBF7A4
:1053D80093F802460B4600201B49FBF70FFAFBF730
:1053E8007DFBD146DAF8203003FB00F0C8F8040052
:1053F800D8F808A0D8F81800FBF79EFC01465046DC
:10540800FBF7A6FD8246D9F82000FBF799FC014678
:105418005046FBF7E9FC0D49FBF7E6FCFBF7AAFE53
:10542800C8F8140067E703B0BDE8F08F1014002037
:10543800C0030020000C0140701300200010014040
:10544800D0130020B46E000800400F410050C3473D
:105458001A4B1B681A6912F0010F2DD04DF804BDC4
:105468006FF001021A611649D1E900BC1BF1010273
:105478004CF10003C1E90023002307E0114A02EBC5
:10548800431200215160516191610133012B10DCFD
:1054980003EB430211010C4A0A44526A002AEDDD6B
:1054A800590019440801084A0244516A01395162F5
:1054B800EBE75DF804BB7047704700BF101400208D
:1054C800C0030020D0130020701300207047FEE7AF
:1054D800FEE7FEE7FEE770477047704708B5FDF73F
:1054E80053F8FCF78EFE08BD08B51B4B5B6913F437
:1054F800007303D04FF40073174A5361164A526978
:1055080012F4807F05D0144A4FF48071516143F43E
:105518000073114A526912F0800F03D00E4A80219D
:1055280051610B430C4A526912F0400F03D00A4AEA
:10553800402151610B43084A526912F0200F03D0F1
:10554800054A202151610B4313F4E75F00D108BDE0
:10555800FFF7ACFEFBE700BF0004014008B5214B94
:105568005B6913F4004303D04FF400431D4A5361B1
:105578001C4A526912F4804F04D01A4A4FF48041F1
:1055880051610B43174A526912F4005F04D0154A5F
:105598004FF4005151610B43124A526912F4805F73
:1055A80004D0104A4FF4805151610B430D4A52699F
:1055B80012F4006F04D00B4A4FF4006151610B43A1
:1055C800084A526912F4806F04D0064A4FF4806189
:1055D80051610B4313F4E75F00D108BDFFF766FE86
:1055E800FBE700BF0004014008B50248FEF7D8FEFB
:1055F80008BD00BF0044004008B50248FCF7C7FAE0
:1056080008BD00BFB4090020002103E00B4B5B5824
:10561800435004310A480B4B42189A42F6D30A4ABF
:1056280002E0002342F8043B084B9A42F9D3FDF705
:10563800E1FA00F00FF8FDF74BFF70473C710008E6
:1056480000000020380300203803002054140020F4
:10565800FEE7000070B500250C4E0D4CA41BA410ED
:10566800A54209D101F05AF900250A4E0A4CA41B9B
:10567800A410A54205D170BD56F8253098470135CC
:10568800EEE756F8253098470135F2E734710008FF
:1056980034710008347100083871000810B5431ED1
:1056A8000A44914200D110BD11F8014B03F8014F93
:1056B800F7E703460244934200D1704703F8011B01
:1056C800F9E700000CB430B5174B0C1E9DB01D68EF
:1056D80008DA8B234FF0FF302B601DB0BDE8304057
:1056E80002B070474FF40273ADF814300CBF234674
:1056F80004F1FF33049307934FF6FF73029006906B
:10570800ADF81630209A21AB02A92846019300F083
:10571800B3F8431CBCBF8B232B60002CDDD00022C8
:10572800029B1A70D9E700BF680100200EB46FF021
:10573800004100B59CB01DAB029006900791049102
:105748000848094953F8042B0591006802A90193F8
:1057580000F092F80022029B1A701CB05DF804EB6E
:1057680003B07047680100200802FFFF0EB44FF431
:10577800017230B59CB01FAC54F8045BADF814202E
:1057880002900690FAF74CFD0B4B03900B93002305
:105798000F9314934FF6FF7307900848ADF816302F
:1057A8002A46234602A90068019400F0B7F91CB004
:1057B800BDE8304003B07047C957000868010020B1
:1057C800002070472DE9F0478E6882469E420C46BD
:1057D8009046994637D88A8912F4906F31D00223BF
:1057E800256809696F1A656905EB450595FBF3F5A9
:1057F80009F101033B449D4238BF1D46530530D58E
:10580800294600F0D5FF064650B90C234FF0FF306B
:10581800CAF80030A38943F04003A381BDE8F087AC
:105828003A462169FFF73AFFA38923F4906343F0CE
:105838008003A38126613E4426604E466561ED1BC8
:10584800A5604E4500D94E4632464146206800F0D4
:1058580049FFA36800209B1BA36023681E442660A1
:10586800DCE72A4600F0FEFF06460028E2D121695F
:10587800504600F051FFC8E72DE9F04F1D468B89CF
:105888009DB01F0680460C4616460FD50B696BB9AE
:10589800402100F08DFF2060206128B90C23C8F852
:1058A80000304FF0FF30C8E04023636100230993C4
:1058B80020238DF8293030234FF0010B8DF82A3042
:1058C800039537463D4615F8013B0BB1252B3ED1D4
:1058D800B7EB060A0BD05346324621464046FFF73F
:1058E80071FF013000F0A480099B534409933B7871
:1058F800002B00F09D8000234FF0FF32CDE90523F7
:10590800049307938DF853301A932F46052217F8FE
:10591800011B504800F0D8FE049BD0B9D90644BFFB
:1059280020228DF853201A0744BF2B228DF85320CC
:105938002A782A2A15D02F4600200A25079A3946A0
:1059480011F8013B303B092B4DD9B8B10FE02F4678
:10595800B8E7404A3D46801A0BFA00F01843049015
:10596800D3E7039A111D12680391002A01DB0792FD
:1059780004E0524243F00203079204933B782E2B33
:105988000CD17B782A2B33D1039B02371A1D1B6855
:105998000392002BB8BF4FF0FF3305932E4D03221F
:1059A8003978284600F090FE38B14023401B03FAAE
:1059B80000F0049B013703430493397806222748F3
:1059C8007E1C8DF8281000F07FFE002838D0244B6C
:1059D80013BB039B073323F0070308330393099B87
:1059E8004B4409936DE705FB023201200F46A6E7F9
:1059F80000230A25194601370593384610F8012B6C
:105A0800303A092A03D9002BC8D00591C6E705FB0F
:105A1800012101230746F0E703AB00932246114B0F
:105A280004A94046AFF30080B0F1FF3F8146D6D1CC
:105A3800A3895B063FF535AF09981DB0BDE8F08F27
:105A480003AB00932246074B04A9404600F02CFA0A
:105A5800EAE700BF786F00087E6F0008826F0008D1
:105A680000000000CD57000838B54B1C144603D180
:105A78004FF0FF35284638BD9389CDB223F0200377
:105A88009381636B52688BB1A36B934208DD2368E3
:105A98005A1E226003F8015C636801336360E9E71A
:105AA800214600F0B5FD0028F1D0E1E7216923681F
:105AB80051B1994208D213F8011CA94204D1013B03
:105AC800013223606260D5E7C4E90F3204F1440370
